:020000023000CC
:10E000000D9472F00D949BF00D949BF00D949BF089
:10E010000D949BF00D949BF00D949BF00D949BF050
:10E020000D949BF00D949BF00D949BF00D949BF040
:10E030000D949BF00D949BF00D949BF00D949BF030
:10E040000D949BF00D949BF00D949BF00D949BF020
:10E050000D949BF00D949BF00D949BF00D949BF010
:10E060000D949BF00D949BF00D949BF00D949BF000
:10E070000D949BF00D949BF00D949BF00D949BF0F0
:10E080000D949BF00D949BF00D949BF00D949BF0E0
:10E090000D949BF00D949BF00D949BF00D949BF0D0
:10E0A0000D949BF00D949BF00D949BF00D949BF0C0
:10E0B0000D949BF00D949BF00D949BF00D949BF0B0
:10E0C0000D949BF00D949BF00D949BF00D949BF0A0
:10E0D0000D949BF00D949BF00D949BF00D949BF090
:10E0E0000D949BF011241FBECFEFD1E2DEBFCDBF58
:10E0F00001E00CBF12E0A0E0B2E0E8E5F0EF03E0E1
:10E100000BBF02C007900D92A236B107D9F722E0EB
:10E11000A2E6B2E001C01D92A237B207E1F70F9468
:10E120000EF20D942AF801E20EBF0FEE0DBF11247E
:10E130001FBE0D940EF20D9400F0209170023091EC
:10E1400071022115310561F48093C6008091C000F1
:10E1500086FFFCCF8091C00080648093C00008954A
:10E160002230310559F48093D6008091D00086FF8B
:10E17000FCCF8091D00080648093D000089520E08F
:10E1800030E02817390749F0EFECF7E03197F1F765
:10E1900000C000002F5F3F4FF4CF0895E0ECF0E0A7
:10E1A00080818260808320E12093C40098E1909375
:10E1B000C100E0EDF0E08081826080832093D40094
:10E1C0009093D1000895019719F480E885B90895D6
:10E1D00015B8089581B1806F81B982B1806F82B91D
:10E1E0006D9A75989D9AA598E1E0F1E0808188622A
:10E1F0008083E2E0F1E080818862808308958F98D7
:10E2000008958F9A0895CF93DF93C82FD62F662352
:10E2100011F05D9A01C05D98C7FF02C0A39A01C0CA
:10E22000A39880910201C6FF02C0806801C08F7769
:10E2300080930201C5FF02C0A49A01C0A498C4FF44
:10E2400002C08D9A01C08D9800C00F9401F182E048
:10E250008A95F1F700C00F94FFF0C3FF02C0A39AA4
:10E2600001C0A39880910201C2FF02C0806801C072
:10E270008F7780930201C1FF02C0A49A01C0A498C5
:10E28000C0FF02C08D9A01C08D9800C00F9401F1AB
:10E2900092E09A95F1F700C00F94FFF0A39A809155
:10E2A0000201806880930201A49A8D9AD11108C05E
:10E2B000C43030F48FE999E10197F1F700C003C051
:10E2C00095ED9A95F1F70000DF91CF91089560E008
:10E2D0000D9403F180580D9467F181E00D9467F17E
:10E2E00082E00D9467F161E00D9403F1CF93DF9329
:10E2F000EC018991882319F00F9473F1FACFDF9123
:10E30000CF910895CF93DF93FC018491EF01219683
:10E31000882321F00F9473F1FE01F7CFDF91CF91A5
:10E320000895879A559A9B9AE1E0F1E08081806890
:10E3300080839C9A859A0F94FFF05D98A39AE2E0FF
:10E34000F1E0808180688083A49A8D9A8FE59AEEAF
:10E350000197F1F700C00000A39880818F77808338
:10E3600000C00F9401F192E09A95F1F700C00F946C
:10E37000FFF08FE090E40197F1F700C000000F94E8
:10E3800001F192E09A95F1F700C00F94FFF08FE849
:10E3900091E00197F1F700C000000F9401F192E0C5
:10E3A0009A95F1F700C00F94FFF085ED8A95F1F78B
:10E3B00000008D9800C00F9401F192E09A95F1F75A
:10E3C00000C00F94FFF085ED8A95F1F700008D985D
:10E3D00000C00F9401F192E09A95F1F700C00F94FC
:10E3E000FFF082E08A95F1F700C0A39A00C00F9475
:10E3F00001F192E09A95F1F700C00F94FFF085EDDE
:10E400008A95F1F7000088E00F9467F10F946DF1A1
:10E4100086E00F9467F18CE00D9467F1CF93DF9362
:10E42000CDB7DEB7CE52D1400FB6F894DEBF0FBEE7
:10E43000CDBF94B7F894A89514BE80916000886110
:10E440008093600010926000789493FFA9C080913F
:10E45000FC1F9091FD1FA091FE1FB091FF1F8A3AF3
:10E460009545AA4AB54509F08DC18091F41F909158
:10E47000F51FA091F61FB091F71FAC01BD01E3E0BD
:10E480007E2E66246394F5E05F2E11E1412E2091EB
:10E49000F81F3091F91F2115310509F473C110914E
:10E4A000FB1F10FF09C0FA0160935B0070925700D8
:10E4B000E89507B600FCFDCF6A017B01EFEFDE1A9D
:10E4C000EE0AFE0A11FF58C01470312E2091F81F79
:10E4D0003091F91F2115310539F4FA0160935B0081
:10E4E00050925700E89541C08C159D05AE05BF05BB
:10E4F000A0F78090F01F9090F11FA090F21FB090B5
:10E50000F31F332029F0ABBEF4010791169106C02A
:10E51000E091F01FF091F11F008111810801FC01D1
:10E52000A0935B0060925700E89511240296A11D0C
:10E53000B11DF2E08F0E911CA11CB11C8092F01F46
:10E540009092F11FA092F21FB092F31F2330310579
:10E5500038F0225031093093F91F2093F81FB6CFBD
:10E560001092F91F1092F81FB1CF07B600FCFDCF33
:10E5700040925700E89511C09F5FAF4FBF4F2130C9
:10E5800001E0300730F03A953093F91F2093F81FDF
:10E5900004C01092F91F1092F81FB701A60177CF9F
:10E5A0001092710210927002279A2F9A8091C000E7
:10E5B00082608093C00080E18093C40088E18093F2
:10E5C000C10000000F94EAF080E885B90F94CEF006
:10E5D0000F9491F10F946DF180E00F946AF181E452
:10E5E0000F946AF183E092E00F9476F187E10F9443
:10E5F0006AF183E192E00F9476F115B8C12CD12C29
:10E60000760167EC462E6BE1562E612C712C72E080
:10E61000A72EB12C00E010E08091C00087FF09C058
:10E620008091D00087FF2FC0B0927102A09270023B
:10E630002AC08091D00087FDF3CF0115110581F725
:10E6400015E01A95F1F700002FEFC21AD20AE20A7C
:10E65000F20A91E080E031E2C3163EE4D306E10421
:10E66000F10408F490E0092F182FC701B601A301A7
:10E6700092010F94CCF7672B682B692B69F685B153
:10E68000805885B9C9CF0F5F1F4F0115110511F2D1
:10E690000130110509F070C080E090E0212C312C90
:10E6A000C75DDE4F19821882C952D140C85DDE4F66
:10E6B0001882C852D140912CCA5DDE4F198218824F
:10E6C000C652D140CE5DDE4F188219821A821B825B
:10E6D000C252D140C12CD12C76014EE151E04C0FF9
:10E6E0005D1F4E5F5F4FC55DDE4F59834883CB5240
:10E6F000D140AEE1B1E0AC0FBD1F1197C35DDE4F5D
:10E70000B983A883CD52D14060917002709171029B
:10E7100020E030E0A0E00130110509F441C0412CB7
:10E72000512C32016115710529F44091C00047FF59
:10E7300008C036C06230710521F44091D00047FD19
:10E7400006C4BFEF4B1A5B0A6B0A7B0AE1E04E1668
:10E75000E2E15E06EAE76E06710420F3412C512CDB
:10E7600032016BBEF201479156914F3F5F4FB9F2B4
:10E77000EE27FF270994D6CF27982F9884E690E0BC
:10E780000F94BFF000008091C0008D7F8093C00087
:10E7900081E180935700E895EE27FF270994FFCF8A
:10E7A000B091C600A33009F120F4A13079F040F017
:10E7B00015C0A53051F1E8F0A63009F447C05BC0A0
:10E7C000BB3109F4C7C300E010E0A5CF9B26C85DAC
:10E7D000DE4FB883C852D140A2E0F5CF2B2F30E0F6
:10E7E000322F22279B26A3E0EECF2B2B9B26A4E0E3
:10E7F000EACFBE3009F0BAC39B26CA5DDE4F19824C
:10E800001882C652D140A5E0DECFCA5DDE4F4881F6
:10E810005981C652D1404F5F5F4FE1E0F0E0EC0F0D
:10E82000FD1FCA5DDE4F48805980C652D140E40DBD
:10E83000F51DB0839B264217530709F48FC3CA5DA9
:10E84000DE4F59834883C652D140BDCFB9118EC324
:10E85000892BA1F40F946DF184E10F946AF183E2A6
:10E8600092E00F9476F18DE20F946AF187E392E0E3
:10E870000F9476F103C0A73059F3A5CF80916C02B5
:10E8800090916D02A0916E02B0916F02892B8A2B3C
:10E890008B2BA9F5C75DDE4F08811981C952D14084
:10E8A0000F5F1F4FC75DDE4F19830883C952D140E8
:10E8B0000B30110520F11FEF211A310A26E0221634
:10E8C000310410F0212C312C8BE50F946AF18BE48C
:10E8D00092E00F9476F134E02316310418F48CE5BD
:10E8E000820D02C082E682190F946AF18AE20F94C7
:10E8F00073F1C75DDE4F19821882C952D1408091F1
:10E900006C0290916D02A0916E02B0916F02892B02
:10E910008A2B8B2B09F467C080916202909163026D
:10E92000009709F460C0019739F488E50F946AF103
:10E9300082E592E00F9476F18091620290916302F9
:10E94000029739F487E50F946AF189E592E00F9414
:10E9500076F1209168023091690240916A025091EB
:10E960006B02A4E6B0E00F94EEF720916C023091B8
:10E970006D0240916E0250916F020F94CCF7C90165
:10E9800040E2442E542C642C712CC25EDE4F48822F
:10E9900059826A827B82CE51D140C55DDE4FE881CB
:10E9A000F981CB52D14030E20AE010E01816190686
:10E9B0003CF4B8010F94B8F7805D8083CB0101C0AF
:10E9C00030833197C35DDE4F68807980CD52D1406E
:10E9D000E615F70559F7CE01825E9E4F0F9476F14A
:10E9E00085E20F9473F12981243109F4D9C190F59E
:10E9F000263009F4DEC000F5223009F44EC0233081
:10EA000009F478C0213009F057C21A8288E08B835C
:10EA100081E48C8386E58D8382E58E8389E48F8310
:10EA200083E5888780E589878FE58A8782E38B87FE
:10EA3000812C0BE010E045C2213109F468C018F4C4
:10EA4000203159F139C2223109F4A5C0233109F42A
:10EA5000C2C032C2293109F48CC048F4263109F40D
:10EA60009FC108F4B8C0283109F46DC025C22B310C
:10EA700009F451C008F45AC02D3189F0213709F04A
:10EA80001BC28A8180936C028B8180936D028C8182
:10EA900080936E0210926F0281C1812C3AC08D81E9
:10EAA000803339F49F819923B1F09130B1F498E922
:10EAB00017C0982F907599F0803521F499E0E0E027
:10EAC000F0E005C0883559F4E3E0F0E099E0909378
:10EAD0005700949105C09EE103C091E001C090E011
:10EAE0001A821B828C831D829E831F82812C07E0E9
:10EAF00010E0E7C1EA81E059E33028F4F0E0E050AB
:10EB0000FE4F808101C080E01A828B8340C0882440
:10EB100083941A82D4C18D81882321F0813021F41D
:10EB200088E924C08EE122C081E020C01A82E1E0A1
:10EB3000F0E089E080935700E491EB831C82812C04
:10EB400004E010E0BEC18B81803551F48C818830A7
:10EB500019F4E2E0F0E006C089E0E0E0F0E003C094
:10EB6000E3E0F0E089E08093570084911A828B8380
:10EB7000E5CF8D81836C99E0E1E0F0E0082E909381
:10EB80005700E89507B600FCFDCF1A821B82812C46
:10EB900003E010E096C180EC8A83812C02E010E053
:10EBA000CE5DDE4F188219821A821B82C252D1407A
:10EBB00088C18A81CB80D12CE12CF12C7601DD2417
:10EBC000CC24F82A8D81C82A8C81D82ACC0CDD1C53
:10EBD000EE1CFF1CE3C00A8110E0102F00278B8180
:10EBE000082B233109F0B4C080916C0290916D0222
:10EBF000A0916E02B0916F02892B8A2B8B2B09F4A6
:10EC000040C0C114D104E104F10491F4C801A0E0B2
:10EC1000B0E08093680290936902A0936A02B09377
:10EC20006B0281E090E0909363028093620221C0C6
:10EC30008091640290916502A0916602B091670292
:10EC4000C816D906EA06FB06A1F0809168029091E9
:10EC50006902A0916A02B0916B02800F911FA11D01
:10EC6000B11D8093680290936902A0936A02B093E9
:10EC70006B02C0926402D0926502E0926602F0924A
:10EC80006702CE5DDE4F488059806A807B80C25229
:10EC9000D140411420EE520623E062067104E8F4EC
:10ECA00083E0F20160925B0080935700E89507B61D
:10ECB00000FCFDCFCE5DDE4F88819981AA81BB81AA
:10ECC000C252D1409F5FAF4FBF4FCE5DDE4F8883B2
:10ECD0009983AA83BB83C252D140C11490EED90656
:10ECE00093E0E906F10408F059C02B85B701A601AD
:10ECF000CE010B96BB24B394DC011296CD01FD012D
:10ED00003197E08130E03E2B0901FA0160935B000E
:10ED1000B0925700E89511244E5F5F4F6F4F7F4FC1
:10ED2000025011090115110511F02C91E5CF85E074
:10ED3000F601E0925B0080935700E89507B600FC6F
:10ED4000FDCF81E180935700E8956A017B0126C0E1
:10ED50002601370176946794579447944E01ABE0AF
:10ED60008A0E911CA12CB12CA016B10661F0F40101
:10ED700061914F01C501840D951D0F941CF8FFEFA3
:10ED8000AF1ABF0AF1CFC501A0E0B0E0880F991F0C
:10ED9000AA1FBB1FC80ED91EEA1EFB1E1A828EC0F8
:10EDA0008A8190E0982F88273B81832B8C010D5F0F
:10EDB0001F4F1A82243109F052C040916C025091C9
:10EDC0006D0260916E0270916F02452B462B472BAE
:10EDD00091F14C01A12CB12CC114D104E104F10436
:10EDE000B1F420916202309163022130310579F44F
:10EDF00022E030E030936302209362028092680246
:10EE000090926902A0926A02B0926B0214C0409183
:10EE100068025091690260916A0270916B02480D1C
:10EE2000591D6A1D7B1D40936802509369026093CF
:10EE30006A0270936B02DE011396EBBEF601279116
:10EE400036912C931296FD013197308322E0C20E49
:10EE5000D11CE11CF11C0297009779F72AC0FE0132
:10EE600033969C01B701A60141BD852E962EA72E93
:10EE7000BB2482BC4F5F5F4F6F4F7F4FF89AA0B5A6
:10EE8000A193215031092115310571F7AC01415091
:10EE9000510960E070E04F5F5F4F6F4F7F4FC40ECE
:10EEA000D51EE61EF71EA3E0B0E0AC0FBD1FA80FF5
:10EEB000B91F1C92812C05C080EC8A83812C02E052
:10EEC00010E08BE10F949DF0C85DDE4F8881C85241
:10EED000D1400F949DF0812F0F949DF0802F0F94BF
:10EEE0009DF08EE00F949DF055E1952EC85DDE4FAC
:10EEF0004880C852D1409424902691269E012F5FCD
:10EF00003F4F5901020F131FA016B10641F0D50162
:10EF10007D905D01872D0F949DF09724F5CF892D6D
:10EF20000F949DF0C85DDE4F0881C852D1400F5F3D
:10EF3000C85DDE4F0883C852D14085B1805885B97D
:10EF400081101ACC00E010E081E090E0DDCBB091C0
:10EF5000D60028CC4BE1942EA1E035CCCA5DDE4F23
:10EF600039832883C652D140A6E02DCCA0E02BCC1B
:10EF700097FB072E16F4009407D077FD09D00F9465
:10EF8000F9F707FC05D03EF4909581959F4F0895C1
:10EF9000709561957F4F0895A1E21A2EAA1BBB1BA5
:10EFA000FD010DC0AA1FBB1FEE1FFF1FA217B30755
:10EFB000E407F50720F0A21BB30BE40BF50B661F6B
:10EFC000771F881F991F1A9469F76095709580952F
:10EFD00090959B01AC01BD01CF0108950F940DF8F0
:10EFE000A59F900DB49F900DA49F800D911D11249D
:10EFF0000895AA1BBB1B51E107C0AA1FBB1FA61780
:10F00000B70710F0A61BB70B881F991F5A95A9F7D1
:10F0100080959095BC01CD010895A29FB001B39F4A
:10F02000C001A39F700D811D1124911DB29F700D11
:10F03000811D1124911D0895262FF999FECF1FBA25
:10F0400092BD81BD20BD0FB6F894FA9AF99A0FBE11
:08F0500001960895F894FFCF2A
:10F058000F020A5A617269626F20526573656172A4
:10F06800636800616E6420446576656C6F706D65D9
:10F078006E740020446F206E6F7420646973636F30
:10F088006E6E656374210020557067726164696EE5
:10F0980067206669726D77617265007C2020202088
:10F0A8007C007772697465200076657269667920DC
:02F0B800000056
:040000033000E000E9
:00000001FF
